{
  "abi": [
    {
      "anonymous": false,
      "inputs": [
        {
          "indexed": false,
          "internalType": "uint256",
          "name": "canaryId",
          "type": "uint256"
        },
        {
          "indexed": false,
          "internalType": "string",
          "name": "name",
          "type": "string"
        },
        {
          "indexed": false,
          "internalType": "string",
          "name": "message",
          "type": "string"
        },
        {
          "indexed": false,
          "internalType": "uint256",
          "name": "frequency",
          "type": "uint256"
        },
        {
          "indexed": false,
          "internalType": "uint256",
          "name": "threshold",
          "type": "uint256"
        },
        {
          "indexed": false,
          "internalType": "address[]",
          "name": "feeders",
          "type": "address[]"
        },
        {
          "indexed": false,
          "internalType": "address",
          "name": "creator",
          "type": "address"
        },
        {
          "indexed": false,
          "internalType": "uint256",
          "name": "expiryTimestamp",
          "type": "uint256"
        }
      ],
      "name": "CanaryCreated",
      "type": "event"
    },
    {
      "anonymous": false,
      "inputs": [
        {
          "indexed": false,
          "internalType": "uint256",
          "name": "canaryId",
          "type": "uint256"
        },
        {
          "indexed": false,
          "internalType": "address",
          "name": "feeder",
          "type": "address"
        },
        {
          "indexed": false,
          "internalType": "uint256",
          "name": "timestamp",
          "type": "uint256"
        }
      ],
      "name": "CanaryFed",
      "type": "event"
    },
    {
      "anonymous": false,
      "inputs": [
        {
          "indexed": false,
          "internalType": "uint256",
          "name": "canaryId",
          "type": "uint256"
        },
        {
          "indexed": false,
          "internalType": "uint256",
          "name": "timestamp",
          "type": "uint256"
        }
      ],
      "name": "CanaryFullyFed",
      "type": "event"
    },
    {
      "inputs": [
        {
          "internalType": "uint256",
          "name": "",
          "type": "uint256"
        }
      ],
      "name": "canaries",
      "outputs": [
        {
          "internalType": "uint256",
          "name": "id",
          "type": "uint256"
        },
        {
          "internalType": "string",
          "name": "name",
          "type": "string"
        },
        {
          "internalType": "string",
          "name": "message",
          "type": "string"
        },
        {
          "internalType": "uint256",
          "name": "frequency",
          "type": "uint256"
        },
        {
          "internalType": "uint256",
          "name": "threshold",
          "type": "uint256"
        },
        {
          "internalType": "uint256",
          "name": "initializationTimestamp",
          "type": "uint256"
        },
        {
          "internalType": "uint256",
          "name": "expiryTimestamp",
          "type": "uint256"
        },
        {
          "internalType": "uint256",
          "name": "feederCount",
          "type": "uint256"
        },
        {
          "internalType": "address",
          "name": "creator",
          "type": "address"
        }
      ],
      "stateMutability": "view",
      "type": "function"
    },
    {
      "inputs": [
        {
          "internalType": "uint256",
          "name": "canaryId",
          "type": "uint256"
        }
      ],
      "name": "feed",
      "outputs": [],
      "stateMutability": "nonpayable",
      "type": "function"
    },
    {
      "inputs": [
        {
          "internalType": "string",
          "name": "name",
          "type": "string"
        },
        {
          "internalType": "string",
          "name": "message",
          "type": "string"
        },
        {
          "internalType": "uint256",
          "name": "frequency",
          "type": "uint256"
        },
        {
          "internalType": "uint256",
          "name": "threshold",
          "type": "uint256"
        },
        {
          "internalType": "address[]",
          "name": "feeders",
          "type": "address[]"
        }
      ],
      "name": "hatchCanary",
      "outputs": [],
      "stateMutability": "nonpayable",
      "type": "function"
    },
    {
      "inputs": [
        {
          "internalType": "uint256",
          "name": "canaryId",
          "type": "uint256"
        }
      ],
      "name": "isCanaryAlive",
      "outputs": [
        {
          "internalType": "bool",
          "name": "",
          "type": "bool"
        }
      ],
      "stateMutability": "view",
      "type": "function"
    },
    {
      "inputs": [],
      "name": "nextCanaryId",
      "outputs": [
        {
          "internalType": "uint256",
          "name": "",
          "type": "uint256"
        }
      ],
      "stateMutability": "view",
      "type": "function"
    }
  ],
  "bytecode": {
    "object": "0x6080604052600060015534801561001557600080fd5b50610d87806100256000396000f3fe608060405234801561001057600080fd5b50600436106100575760003560e01c8063779dc68e1461005c5780638875a4d314610078578063a291ab05146100a0578063f59dfdfb146100b5578063f79e447b146100c8575b600080fd5b61006560015481565b6040519081526020015b60405180910390f35b61008b610086366004610891565b6100fd565b60405161006f999897969594939291906108f0565b6100b36100ae3660046109a5565b610260565b005b6100b36100c3366004610891565b6105c6565b6100ed6100d6366004610891565b600090815260208190526040902060080154421090565b604051901515815260200161006f565b6000602081905290815260409020805460018201805491929161011f90610a82565b80601f016020809104026020016040519081016040528092919081815260200182805461014b90610a82565b80156101985780601f1061016d57610100808354040283529160200191610198565b820191906000526020600020905b81548152906001019060200180831161017b57829003601f168201915b5050505050908060020180546101ad90610a82565b80601f01602080910402602001604051908101604052809291908181526020018280546101d990610a82565b80156102265780601f106101fb57610100808354040283529160200191610226565b820191906000526020600020905b81548152906001019060200180831161020957829003601f168201915b5050506003840154600485015460078601546008870154600a880154600b909801549697939692955090935091906001600160a01b031689565b866102a95760405162461bcd60e51b81526020600482015260146024820152734e616d652063616e6e6f7420626520656d70747960601b60448201526064015b60405180910390fd5b846102f65760405162461bcd60e51b815260206004820152601760248201527f4d6573736167652063616e6e6f7420626520656d70747900000000000000000060448201526064016102a0565b600084116103465760405162461bcd60e51b815260206004820181905260248201527f4672657175656e6379206d7573742062652067726561746572207468616e203060448201526064016102a0565b600083116103965760405162461bcd60e51b815260206004820181905260248201527f5468726573686f6c64206d7573742062652067726561746572207468616e203060448201526064016102a0565b806103f35760405162461bcd60e51b815260206004820152602760248201527f4174206c65617374206f6e652066656564657220616464726573732069732072604482015266195c5d5a5c995960ca1b60648201526084016102a0565b4260006104008683610ad2565b60018054600081815260208190526040902090815591925081016104258b8d83610b4c565b5060028101610435898b83610b4c565b5060038101879055600481018690556007810183905560088101829055600b810180546001600160a01b03191633179055610474600682018686610819565b5060005b848110156104e957600182600501600088888581811061049a5761049a610c0c565b90506020020160208101906104af9190610c3e565b6001600160a01b031681526020810191909152604001600020805460ff1916911515919091179055806104e181610c60565b915050610478565b506001600081546104f990610c60565b909155508386111561056c5760405162461bcd60e51b815260206004820152603660248201527f5468726573686f6c642063616e6e6f742062652067726561746572207468616e60448201527520746865206e756d626572206f66206665656465727360501b60648201526084016102a0565b7fbd5054c0857a063b3d9c156cc57ac052950fec7f3cda262cc691dcc8cae6f0c06001548c8c8c8c8c8c8c8c338c6040516105b19b9a99989796959493929190610ca2565b60405180910390a15050505050505050505050565b600081815260208181526040808320338452600501909152902054819060ff16151560011461064a5760405162461bcd60e51b815260206004820152602a60248201527f4f6e6c792076616c696420666565646572732063616e20706572666f726d20746044820152693434b99030b1ba34b7b760b11b60648201526084016102a0565b6000828152602081905260409020600881015483919042106106a25760405162461bcd60e51b815260206004820152601160248201527010d85b985c9e481a5cc8195e1c1a5c9959607a1b60448201526064016102a0565b600084815260208181526040808320338452600981019092529091205460ff1661073c57600a810180549060006106d883610c60565b9091555050336000818152600983016020908152604091829020805460ff1916600117905581518881529081019290925242908201527fe9e0a0fed3f263078b1e91914f1f0962b34f7216e6d9d8ac37c15130127cf3749060600160405180910390a15b806004015481600a01541061081257600381015461075a9042610ad2565b6008820155604080518681524260208201527f4736cfd8ae2e5b920ae0bed18361f8013bd2fbbdd66e0e6a993f41d44af99875910160405180910390a16000600a82018190555b60068201548110156108105760008260090160008460060184815481106107ca576107ca610c0c565b6000918252602080832091909101546001600160a01b031683528201929092526040019020805460ff19169115159190911790558061080881610c60565b9150506107a1565b505b5050505050565b82805482825590600052602060002090810192821561086c579160200282015b8281111561086c5781546001600160a01b0319166001600160a01b03843516178255602090920191600190910190610839565b5061087892915061087c565b5090565b5b80821115610878576000815560010161087d565b6000602082840312156108a357600080fd5b5035919050565b6000815180845260005b818110156108d0576020818501810151868301820152016108b4565b506000602082860101526020601f19601f83011685010191505092915050565b60006101208b835280602084015261090a8184018c6108aa565b9050828103604084015261091e818b6108aa565b60608401999099525050608081019590955260a085019390935260c084019190915260e08301526001600160a01b0316610100909101529392505050565b60008083601f84011261096e57600080fd5b50813567ffffffffffffffff81111561098657600080fd5b60208301915083602082850101111561099e57600080fd5b9250929050565b60008060008060008060008060a0898b0312156109c157600080fd5b883567ffffffffffffffff808211156109d957600080fd5b6109e58c838d0161095c565b909a50985060208b01359150808211156109fe57600080fd5b610a0a8c838d0161095c565b909850965060408b0135955060608b0135945060808b0135915080821115610a3157600080fd5b818b0191508b601f830112610a4557600080fd5b813581811115610a5457600080fd5b8c60208260051b8501011115610a6957600080fd5b6020830194508093505050509295985092959890939650565b600181811c90821680610a9657607f821691505b602082108103610ab657634e487b7160e01b600052602260045260246000fd5b50919050565b634e487b7160e01b600052601160045260246000fd5b80820180821115610ae557610ae5610abc565b92915050565b634e487b7160e01b600052604160045260246000fd5b601f821115610b4757600081815260208120601f850160051c81016020861015610b285750805b601f850160051c820191505b8181101561081057828155600101610b34565b505050565b67ffffffffffffffff831115610b6457610b64610aeb565b610b7883610b728354610a82565b83610b01565b6000601f841160018114610bac5760008515610b945750838201355b600019600387901b1c1916600186901b178355610812565b600083815260209020601f19861690835b82811015610bdd5786850135825560209485019460019092019101610bbd565b5086821015610bfa5760001960f88860031b161c19848701351681555b505060018560011b0183555050505050565b634e487b7160e01b600052603260045260246000fd5b80356001600160a01b0381168114610c3957600080fd5b919050565b600060208284031215610c5057600080fd5b610c5982610c22565b9392505050565b600060018201610c7257610c72610abc565b5060010190565b81835281816020850137506000828201602090810191909152601f909101601f19169091010190565b60006101008d8352806020840152610cbd8184018d8f610c79565b90508281036040840152610cd2818b8d610c79565b606084018a90526080840189905283810360a085015286815287915060200160005b87811015610d22576001600160a01b03610d0d84610c22565b16825260209283019290910190600101610cf4565b506001600160a01b03861660c08501529150610d3b9050565b8260e08301529c9b50505050505050505050505056fea26469706673582212206440eb3b61cfb7d2f3817fecdb85c1b0e8de8e8941e5b5cf3142b0953974cc7a64736f6c63430008130033",
    "linkReferences": {}
  },
  "methodIdentifiers": {
    "canaries(uint256)": "8875a4d3",
    "feed(uint256)": "f59dfdfb",
    "hatchCanary(string,string,uint256,uint256,address[])": "a291ab05",
    "isCanaryAlive(uint256)": "f79e447b",
    "nextCanaryId()": "779dc68e"
  },
  "id": 15
}